:020000040800F2
:10000000002800209D0C0008C10B0008C70B000849
:10001000CD0B0008D30B0008D90B0008000000002E
:10002000000000000000000000000000DF0B0008DE
:10003000EB0B000800000000F70B0008030C0008A1
:10004000E50C0008E50C0008E50C0008E50C0008CC
:10005000E50C0008E50C0008E50C0008E50C0008BC
:10006000E50C0008E50C0008E50C0008E50C0008AC
:10007000E50C0008E50C0008E50C0008E50C00089C
:10008000E50C0008E50C0008E50C0008E50C00088C
:10009000E50C0008E50C0008E50C0008E50C00087C
:1000A000E50C0008E50C0008E50C0008E50C00086C
:1000B000110C0008E50C000800000000E50C000829
:1000C000E50C00080000000000000000E50C00083E
:1000D00000000000E50C0008E50C0008000000002E
:1000E000E50C0008E50C0008E50C00080000000025
:1000F0000000000000000000000000000000000000
:0C01000000000000000000005FF808F1A3
:10010C0010B5054C237833B9044B13B10448AFF345
:10011C0000800123237010BDA0000020000000000F
:10012C00F423000808B5034B1BB103490348AFF394
:10013C00008008BD00000000A4000020F42300088B
:10014C0080B485B000AF786039607B68FB600AE0F2
:10015C003B689A68FB681B699B68D21A3B689A607B
:10016C00FB681B69FB60FB681B69002B06D0FB68F6
:10017C001B699A683B689B689A42E9DBFB681A69C1
:10018C003B681A61FB683A681A613B681B69002B73
:10019C0008D03B681B6999683B689A683B681B6987
:1001AC008A1A9A6000BF1437BD4680BC704780B471
:1001BC0085B000AF78607B681B69FB60FB681A69CF
:1001CC007B681A6100BF1437BD4680BC70470000C5
:1001DC0080B584B000AF142002F07EF803461A46B6
:1001EC00084B1A60074B1B6800221A61054B1B68F1
:1001FC001A460023136053609360D36000BF10371E
:10020C00BD4680BD1401002090B589B000AF786068
:10021C00144B1B68FB607B683B617B687B61002334
:10022C00BB61142002F058F80346FB61FB691C46C5
:10023C0007F10C030FCB84E80F000A4B1B680A492B
:10024C00FA6941F82320094B1B68F9691846FFF736
:10025C0077FF044B1B685A1C02490A601846243766
:10026C00BD4690BDFC000020BC0000201401002005
:10027C0080B483B000AF7860044A7B6852F82330B6
:10028C00DB6818460C37BD4680BC7047BC000020AC
:10029C0080B582B000AF78600E4A7B6852F823308C
:1002AC000022DA600B4A7B6852F8232009497B68EC
:1002BC0051F8233052689A60074B1A6805497B68DD
:1002CC0051F8233019461046FFF73AFF00BF0837A4
:1002DC00BD4680BDBC0000201401002080B582B05A
:1002EC0000AF114B1B681B697B607B689B68002B04
:1002FC0004DD7B689B685A1E7B689A607B689B68F0
:10030C00002B0DDC7B681B683B60084A3B6852F88D
:10031C0023300122DA60044B1B681846FFF747FFB5
:10032C0000BF0837BD4680BD14010020BC00002072
:10033C0080B582B000AF786000F080F801223D49B2
:10034C007B680B441B781340DBB2002B0CBF0123E2
:10035C000023DBB21A460121374800F0A9FF022224
:10036C0034497B680B441B781340DBB2002B0CBF69
:10037C0001230023DBB21A4602212F4800F098FF1C
:10038C0004222C497B680B441B781340DBB2002BF6
:10039C000CBF01230023DBB21A460421264800F0CF
:1003AC0087FF082223497B680B441B781340DBB280
:1003BC00002B0CBF01230023DBB21A4608211E4878
:1003CC0000F076FF10221B497B680B441B7813400E
:1003DC00DBB2002B0CBF01230023DBB21A46102129
:1003EC00154800F065FF202212497B680B441B78EE
:1003FC001340DBB2002B0CBF01230023DBB21A46E7
:10040C0020210D4800F054FF40220A497B680B4420
:10041C001B781340DBB2002B0CBF01230023DBB293
:10042C001A464021044800F043FF00BF0837BD4680
:10043C0080BD00BF0C240008000C014080B500AF4B
:10044C0001220121114800F033FF012202210F4843
:10045C0000F02EFF012204210C4800F029FF01229C
:10046C0008210A4800F024FF01221021074800F05F
:10047C001FFF01222021054800F01AFF0122402114
:10048C00024800F015FF00BF80BD00BF000C01400A
:10049C0080B582B000AF786000F014F87B68002B58
:1004AC0009DB40227B6802FA03F39BB20022194657
:1004BC00034800F0FDFE00BF0837BD4680BD00BFFD
:1004CC000008014080B500AF012240210A4800F02D
:1004DC00EFFE01228021084800F0EAFE01224FF4D1
:1004EC008071054800F0E4FE01224FF400710248CF
:1004FC0000F0DEFE00BF80BD0008014080B500AFFB
:10050C00002240210A4800F0D3FE00228021084836
:10051C0000F0CEFE00224FF48071054800F0C8FEBA
:10052C0000224FF40071024800F0C2FE00BF80BDF3
:10053C000008014080B500AF184B1B681846FFF748
:10054C00A7FF164B1B68032B22D801A252F823F0ED
:10055C006D0500087905000885050008910500085F
:10056C000F4B1B681846FFF7E3FE14E00C4B5B685F
:10057C001846FFF7DDFE0EE0094B9B681846FFF7A7
:10058C00D7FE08E0064BDB681846FFF7D1FE02E009
:10059C00FFF7B4FF00BF00BF80BD00BF000100200B
:1005AC001800002080B400AF134B1B680133124AB3
:1005BC001360114B1B683B2B07DD104B1B68013381
:1005CC000E4A13600C4B00221A600C4B1B683B2B21
:1005DC0007DD0B4B1B680133094A1360074B0022E4
:1005EC001A60074B1B68172B02DD054B00221A60A3
:1005FC0000BFBD4680BC70471400002010000020D6
:10060C000C00002080B400AF164B1B68164A82FB0E
:10061C0003129210DB17D31A144A1360134B1B6886
:10062C006FF0090202FB03F20E4B1B6813440F4AD6
:10063C0053600F4B1B680C4A82FB03129210DB17A2
:10064C00D31A0A4A9360094B9B686FF0090202FBAC
:10065C0003F2074B1B681344044AD36000BFBD462A
:10066C0080BC70470C00002067666666180000208E
:10067C001000002080B500AF01224FF480711748A4
:10068C0000F016FE01224FF40071144800F010FE29
:10069C0001224FF48061114800F00AFE01224FF450
:1006AC0000610E4800F004FE01224FF480510B480B
:1006BC0000F0FEFD01224FF40051084800F0F8FD57
:1006CC0001224FF48041054800F0F2FD01224FF465
:1006DC000041024800F0ECFD00BF80BD000C014061
:1006EC0080B582B000AF0346FB71FB7903F00103C8
:1006FC00002B0CBF01230023DBB21A460221334826
:10070C0000F0D6FDFB7903F00203002B0CBF012394
:10071C000023DBB21A4604212C4800F0C9FDFB79FA
:10072C0003F00403002B0CBF01230023DBB21A4699
:10073C004FF48061254800F0BBFDFB7903F0080302
:10074C00002B0CBF01230023DBB21A464FF40061CF
:10075C001E4800F0ADFDFB7903F01003002B0CBF1D
:10076C0001230023DBB21A464FF48051174800F0E6
:10077C009FFDFB7903F02003002B0CBF012300230A
:10078C00DBB21A464FF40051104800F091FDFB7992
:10079C0003F04003002B0CBF01230023DBB21A46ED
:1007AC004FF48041094800F083FD97F90730DB4393
:1007BC00DBB2DB09DBB21A464FF40041034800F010
:1007CC0077FD00BF0837BD4680BD00BF0008014063
:1007DC0080B582B000AF7860FFF74CFF0A4A7B68A7
:1007EC0013441B781846FFF77BFF4FF480727B682D
:1007FC0002FA03F39BB200221946044800F058FD9C
:10080C0000BF0837BD4680BD28000020000C014009
:10081C0080B500AF00F062FA00F088F800F00EF935
:10082C0000F0C0F8FFF7D4FC384801F09FF96420C1
:10083C00FFF7EAFC0346364A13601920FFF7E4FC85
:10084C000346344A13600520FFF7DEFC0346324AA8
:10085C001360324B1B681846FFF71AFE304B1B68AF
:10086C001846FFF765FDFFF705FF294B1B68184677
:10087C00FFF7FEFC0346012B10D12021294800F084
:10088C002FFD1021274800F02BFDFFF78BFEFFF703
:10089C00B9FE1F4B1B681846FFF7FAFC1D4B1B6873
:1008AC001846FFF7E5FC0346012B12D1FFF742FE79
:1008BC001A4B1B680133194A1360184B1B68032B26
:1008CC0002DD164B00221A60124B1B681846FFF70C
:1008DC00DFFC114B1B681846FFF7CAFC0346002BC4
:1008EC00C3D0114B1B685A1C0F490A601846FFF7FE
:1008FC006FFF0D4B1B68072B02DD0B4B00221A60A0
:10090C00054B1B681846FFF7C3FCAEE71801002027
:10091C00040000200000002008000020000100203E
:10092C0018000020000801400401002080B590B0A0
:10093C0000AF07F1180328220021184601F0D4FC5F
:10094C003B1D00221A605A609A60DA601A61022319
:10095C00BB610123BB621023FB6200237B6307F1A5
:10096C001803184600F0D6FC0346002B01D000F00B
:10097C00C5F80F237B600023BB600023FB600023C2
:10098C003B6100237B613B1D0021184600F042FFB8
:10099C000346002B01D000F0B1F800BF4037BD4634
:1009AC0080BD000080B586B000AF07F108030022BF
:1009BC001A605A609A60DA603B4600221A605A60EC
:1009CC001D4B4FF080421A601B4B41F63F725A6030
:1009DC00194B00229A60184B0922DA60164B002240
:1009EC001A61154B00229A61134801F06FF8034607
:1009FC00002B01D000F082F84FF48053BB6007F15C
:100A0C00080319460C4801F0EDF90346002B01D000
:100A1C0000F074F800233B6000237B603B461946D2
:100A2C00054801F0C5FB0346002B01D000F066F829
:100A3C0000BF1837BD4680BD1801002080B586B0B8
:100A4C0000AF07F1080300221A605A609A60DA605E
:100A5C00224B9B69214A43F0040393611F4B9B6912
:100A6C0003F004037B607B681C4B9B691B4A43F0BF
:100A7C0008039361194B9B6903F008033B603B68C7
:100A8C0000224FF6F671164800F012FC00224FF6C9
:100A9C007F71144800F00CFC4FF6F673BB60012319
:100AAC00FB6000233B6102237B6107F108031946BD
:100ABC000B4800F083FA4FF67F73BB600123FB6099
:100ACC0000233B6102237B6107F1080319460548AB
:100ADC0000F074FA00BF1837BD4680BD001002400C
:100AEC0000080140000C014080B582B000AF786076
:100AFC00FFF7F4FB00BF0837BD4680BD80B400AFE4
:100B0C0072B600BFFEE7000080B485B000AF154B95
:100B1C009B69144A43F001039361124B9B6903F0E8
:100B2C000103BB60BB680F4BDB690E4A43F080537B
:100B3C00D3610C4BDB6903F080537B607B680A4B01
:100B4C005B68FB60FB6823F0E063FB60FB6843F0D1
:100B5C008063FB60044AFB68536000BF1437BD46DA
:100B6C0080BC7047001002400000014080B584B08A
:100B7C0000AF78607B681B68B3F1804F13D10C4BCE
:100B8C00DB690B4A43F00103D361094BDB6903F0CA
:100B9C000103FB60FB68002200211C2000F0D7F948
:100BAC001C2000F0F0F900BF1037BD4680BD00BF1F
:100BBC000010024080B400AFFEE780B400AFFEE747
:100BCC0080B400AFFEE780B400AFFEE780B400AFA6
:100BDC00FEE780B400AF00BFBD4680BC704780B458
:100BEC0000AF00BFBD4680BC704780B400AF00BFF3
:100BFC00BD4680BC704780B500AF00F0B5F800BFB3
:100C0C0080BD000080B500AF024800F0FBFF00BFC4
:100C1C0080BD00BF1801002080B586B000AF7860A1
:100C2C00144A154BD31A7B617B693B61134B1B68D0
:100C3C00002B02D1114B124A1A60104B1A687B68B8
:100C4C0013443A699A4207D201F01CFB03460C226A
:100C5C001A604FF0FF3309E0084B1B68FB60074B31
:100C6C001A687B681344054A1360FB6818461837EA
:100C7C00BD4680BD002800200004000008010020B3
:100C8C007801002080B400AF00BFBD4680BC704727
:100C9C00FFF7F8FF0B480C490C4A002302E0D4582C
:100CAC00C4500433C4188C42F9D3094A094C0023AC
:100CBC0001E013600432A242FBD301F0E9FAFFF722
:100CCC00A7FD704700000020A0000020442400086D
:100CDC00A000002074010020FEE7000080B500AFEA
:100CEC00084B1B68074A43F010031360032000F005
:100CFC0023F90F2000F008F8FFF706FF0023184631
:100D0C0080BD00BF0020024080B582B000AF78608B
:100D1C00124B1A68124B1B7819464FF47A73B3FBBB
:100D2C00F1F3B2FBF3F3184600F03BF90346002B4A
:100D3C0001D001230EE07B680F2B0AD800227968C2
:100D4C004FF0FF3000F003F9064A7B681360002374
:100D5C0000E0012318460837BD4680BD3000002056
:100D6C00380000203400002080B400AF054B1B7805
:100D7C001A46054B1B681344034A136000BFBD465B
:100D8C0080BC7047380000206001002080B400AFA8
:100D9C00024B1B681846BD4680BC704760010020A2
:100DAC0080B485B000AF78607B6803F00703FB600C
:100DBC000C4BDB68BB60BA684FF6FF031340BB609B
:100DCC00FB681A02BB68134343F0BF6343F4003360
:100DDC00BB60044ABB68D36000BF1437BD4680BCFF
:100DEC00704700BF00ED00E080B400AF044BDB683F
:100DFC001B0A03F007031846BD4680BC704700BFB2
:100E0C0000ED00E080B483B000AF0346FB7197F9AE
:100E1C000730002B0BDBFB7903F01F02064997F917
:100E2C0007305B09012000FA02F241F8232000BFD1
:100E3C000C37BD4680BC704700E100E080B483B045
:100E4C0000AF03463960FB7197F90730002B0ADBC2
:100E5C003B68DAB20C4997F907301201D2B20B4455
:100E6C0083F800230AE03B68DAB20849FB7903F007
:100E7C000F03043B1201D2B20B441A7600BF0C379D
:100E8C00BD4680BC704700BF00E100E000ED00E013
:100E9C0080B489B000AFF860B9607A60FB6803F089
:100EAC000703FB61FB69C3F10703042B28BF042371
:100EBC00BB61FB690433062B02D9FB69033B00E0E1
:100ECC0000237B614FF0FF32BB6902FA03F3DA4374
:100EDC00BB681A407B699A404FF0FF317B6901FA7D
:100EEC0003F3D9437B680B40134318462437BD46A4
:100EFC0080BC704780B582B000AF78607B68013BE6
:100F0C00B3F1807F01D301230FE00A4A7B68013BD8
:100F1C0053600F214FF0FF30FFF790FF054B00227D
:100F2C009A60044B07221A60002318460837BD4606
:100F3C0080BD00BF10E000E080B582B000AF7860EB
:100F4C007868FFF72DFF00BF0837BD4680BD80B520
:100F5C0086B000AF0346B9607A60FB7300237B61F7
:100F6C00FFF742FF78617A68B9687869FFF790FFFC
:100F7C00024697F90F3011461846FFF75FFF00BF86
:100F8C001837BD4680BD80B582B000AF0346FB71FB
:100F9C0097F907301846FFF735FF00BF0837BD46F5
:100FAC0080BD80B582B000AF78607868FFF7A2FF93
:100FBC00034618460837BD4680BD000080B48BB090
:100FCC0000AF7860396000237B6200233B6248E10C
:100FDC0001227B6A02FA03F3FB613B681B68FA6926
:100FEC001340BB61BA69FB699A4240F037813B6898
:100FFC005B68A34A93425ED0A14A934275D8A14A3A
:10100C00934258D09F4A93426FD89F4A934252D0F2
:10101C009D4A934269D89D4A93424CD09B4A934235
:10102C0063D89B4A934246D0994A93425DD8122B7F
:10103C002AD8122B59D801A252F823F0C310000859
:10104C009D100008AF100008F1100008F710000800
:10105C00F7100008F7100008F7100008F710000848
:10106C00F7100008F7100008F7100008F710000838
:10107C00F7100008F7100008F7100008F710000828
:10108C00A5100008B9100008824A934213D02CE036
:10109C003B68DB683B6229E03B68DB6804333B62FE
:1010AC0024E03B68DB6808333B621FE03B68DB688D
:1010BC000C333B621AE03B689B68002B02D1042383
:1010CC003B6213E03B689B68012B05D108233B6214
:1010DC007B68FA691A6109E008233B627B68FA694C
:1010EC005A6103E000233B6200E000BFBB69FF2BA9
:1010FC0001D87B6801E07B6804337B61BB69FF2B03
:10110C0002D87B6A9B0002E07B6A083B9B003B6138
:10111C007B691A680F213B6901FA03F3DB431A4020
:10112C00396A3B6901FA03F31A437B691A603B681D
:10113C005B6803F08053002B00F09080564B9B694A
:10114C00554A43F001039361534B9B6903F0010330
:10115C00BB60BB68514A7B6A9B08023352F8233050
:10116C00FB607B6A03F003039B000F2202FA03F37C
:10117C00DB43FA681340FB607B68494A93420DD00D
:10118C007B68484A934207D07B68474A934201D117
:10119C00022304E0032302E0012300E000237A6A27
:1011AC0002F0030292009340FA681343FB603B4940
:1011BC007B6A9B080233FA6841F823203B685B6822
:1011CC0003F48013002B06D0384B9A683749BB695F
:1011DC0013438B6006E0354B9A68BB69DB4333499C
:1011EC0013408B603B685B6803F40013002B06D044
:1011FC002E4BDA682D49BB691343CB6006E02B4BB1
:10120C00DA68BB69DB4329491340CB603B685B68F8
:10121C0003F40033002B06D0244B5A682349BB69D6
:10122C0013434B6006E0214B5A68BB69DB431F49F3
:10123C0013404B603B685B6803F48033002B06D093
:10124C001A4B1A681949BB6913430B6006E0174B1C
:10125C001A68BB69DB43154913400B607B6A013389
:10126C007B623B681A687B6A22FA03F3002B7FF4DB
:10127C00AFAE00BF00BF2C37BD4680BC704700BF6F
:10128C00000032100000311000002210000021106C
:10129C00000012100000111000100240000001406C
:1012AC0000080140000C0140001001400004014006
:1012BC0080B483B000AF78600B467B8013467B70A4
:1012CC007B78002B03D07A887B681A6103E07B88DB
:1012DC001A047B681A6100BF0C37BD4680BC70478E
:1012EC0080B485B000AF78600B467B807B68DB6890
:1012FC00FB607A88FB6813401A04FB68D9437B882F
:10130C000B401A437B681A6100BF1437BD4680BC82
:10131C007047000080B586B000AF78607B68002B0A
:10132C0001D101236CE27B681B6803F00103002BE5
:10133C0000F08780924B5B6803F00C03042B0CD0FD
:10134C008F4B5B6803F00C03082B12D18C4B5B6842
:10135C0003F48033B3F5803F0BD1894B1B6803F446
:10136C000033002B6CD07B685B68002B68D10123A9
:10137C0046E27B685B68B3F5803F06D1804B1B6807
:10138C007F4A43F4803313602EE07B685B68002B4C
:10139C000CD17B4B1B687A4A23F480331360784B57
:1013AC001B68774A23F4802313601DE07B685B681D
:1013BC00B3F5A02F0CD1724B1B68714A43F48023F8
:1013CC0013606F4B1B686E4A43F4803313600BE061
:1013DC006B4B1B686A4A23F480331360684B1B68A1
:1013EC00674A23F4802313607B685B68002B13D05F
:1013FC00FFF7CCFC386108E0FFF7C8FC02463B69FC
:10140C00D31A642B01D90323FAE15D4B1B6803F457
:10141C000033002BF0D014E0FFF7B8FC386108E083
:10142C00FFF7B4FC02463B69D31A642B01D90323A2
:10143C00E6E1534B1B6803F40033002BF0D100E0C2
:10144C0000BF7B681B6803F00203002B63D04C4B7E
:10145C005B6803F00C03002B0BD0494B5B6803F06B
:10146C000C03082B1CD1464B5B6803F48033002B18
:10147C0016D1434B1B6803F00203002B05D07B688D
:10148C001B69012B01D00123BAE13D4B1B6823F0F2
:10149C00F8027B685B69DB00394913430B603AE067
:1014AC007B681B69002B20D0364B01221A60FFF79A
:1014BC006DFC386108E0FFF769FC02463B69D31A02
:1014CC00022B01D903239BE12D4B1B6803F0020374
:1014DC00002BF0D02A4B1B6823F0F8027B685B6969
:1014EC00DB00274913430B6015E0264B00221A60E2
:1014FC00FFF74CFC386108E0FFF748FC02463B69FB
:10150C00D31A022B01D903237AE11D4B1B6803F07C
:10151C000203002BF0D17B681B6803F00803002B3F
:10152C003AD07B689B69002B19D0174B01221A60AB
:10153C00FFF72CFC386108E0FFF728FC02463B69FA
:10154C00D31A022B01D903235AE10D4B5B6A03F02A
:10155C000203002BF0D0012000F09AFA1CE00A4B99
:10156C0000221A60FFF712FC38610FE0FFF70EFC47
:10157C0002463B69D31A022B08D9032340E100BF72
:10158C000010024000004242800442429E4B5B6AC3
:10159C0003F00203002BE9D17B681B6803F0040302
:1015AC00002B00F0A6800023FB75974BDB6903F042
:1015BC008053002B0DD1944BDB69934A43F080533D
:1015CC00D361914BDB6903F08053BB60BB68012393
:1015DC00FB758E4B1B6803F48073002B18D18B4B5F
:1015EC001B688A4A43F480731360FFF7CFFB3861A2
:1015FC0008E0FFF7CBFB02463B69D31A642B01D9F9
:10160C000323FDE0814B1B6803F48073002BF0D0A7
:10161C007B68DB68012B06D17B4B1B6A7A4A43F053
:10162C00010313622DE07B68DB68002B0CD1764B39
:10163C001B6A754A23F001031362734B1B6A724ACF
:10164C0023F0040313621CE07B68DB68052B0CD1D0
:10165C006D4B1B6A6C4A43F0040313626A4B1B6AA2
:10166C00694A43F0010313620BE0674B1B6A664A3D
:10167C0023F001031362644B1B6A634A23F00403D7
:10168C0013627B68DB68002B15D0FFF77FFB38619A
:10169C000AE0FFF77BFB02463B69D31A41F2883222
:1016AC00934201D90323ABE0574B1B6A03F00203AF
:1016BC00002BEED014E0FFF769FB38610AE0FFF76E
:1016CC0065FB02463B69D31A41F28832934201D939
:1016DC00032395E04C4B1B6A03F00203002BEED165
:1016EC00FB7D012B05D1484BDB69474A23F0805326
:1016FC00D3617B68DB69002B00F08180424B5B6817
:10170C0003F00C03082B61D07B68DB69022B46D1FC
:10171C003F4B00221A60FFF739FB386108E0FFF7F6
:10172C0035FB02463B69D31A022B01D9032367E030
:10173C00354B1B6803F00073002BF0D17B681B6AE0
:10174C00B3F5803F08D1304B5B6823F400327B68E3
:10175C009B682D4913434B602B4B5B6823F474122D
:10176C007B68196A7B685B6A0B43274913434B60A0
:10177C00274B01221A60FFF709FB386108E0FFF7DD
:10178C0005FB02463B69D31A022B01D9032337E030
:10179C001D4B1B6803F00073002BF0D02FE01C4B8B
:1017AC0000221A60FFF7F2FA386108E0FFF7EEFA50
:1017BC0002463B69D31A022B01D9032320E0124BBA
:1017CC001B6803F00073002BF0D118E07B68DB6919
:1017DC00012B01D1012313E00B4B5B68FB60FB6811
:1017EC0003F480327B681B6A9A4206D1FB6803F4CF
:1017FC0070127B685B6A9A4201D0012300E00023DF
:10180C0018461837BD4680BD0010024000700040DD
:10181C006000424280B584B000AF786039607B686C
:10182C00002B01D10123D0E06A4B1B6803F00703A6
:10183C003A689A4210D9674B1B6823F00702654936
:10184C003B6813430B60634B1B6803F007033A6858
:10185C009A4201D00123B8E07B681B6803F00203B5
:10186C00002B20D07B681B6803F00403002B05D0F1
:10187C00594B5B68584A43F4E06353607B681B68C0
:10188C0003F00803002B05D0534B5B68524A43F41A
:10189C0060535360504B5B6823F0F0027B689B688D
:1018AC004D4913434B607B681B6803F00103002B0D
:1018BC0040D07B685B68012B07D1474B1B6803F456
:1018CC000033002B15D101237FE07B685B68022B72
:1018DC0007D1414B1B6803F00073002B09D1012386
:1018EC0073E03D4B1B6803F00203002B01D1012375
:1018FC006BE0394B5B6823F003027B685B6836490D
:10190C0013434B60FFF742FAF8600AE0FFF73EFA28
:10191C000246FB68D31A41F28832934201D9032361
:10192C0053E02D4B5B6803F00C027B685B689B00FB
:10193C009A42EBD1274B1B6803F007033A689A4293
:10194C0010D2244B1B6823F0070222493B68134337
:10195C000B60204B1B6803F007033A689A4201D0D6
:10196C00012332E07B681B6803F00403002B08D0D2
:10197C00194B5B6823F4E0627B68DB681649134300
:10198C004B607B681B6803F00803002B09D0124BDB
:10199C005B6823F460527B681B69DB000E491343C0
:1019AC004B6000F021F802460B4B5B681B0903F0FF
:1019BC000F030A49CB5C22FA03F3094A1360094B63
:1019CC001B681846FFF7A0F9002318461037BD46D0
:1019DC0080BD00BF00200240001002401824000807
:1019EC00300000203400002080B487B000AF00230A
:1019FC00FB600023BB6000237B6100237B60002322
:101A0C003B611E4B5B68FB60FB6803F00C03042B13
:101A1C0002D0082B03D027E0194B3B6127E0FB6871
:101A2C009B0C03F00F03174AD35C7B60FB6803F439
:101A3C008033002B10D0114B5B685B0C03F001035F
:101A4C00114AD35CBB607B680D4A02FB03F2BB6896
:101A5C00B2FBF3F37B6104E07B680C4A02FB03F3FB
:101A6C007B617B693B6102E0054B3B6100BF3B69DD
:101A7C0018461C37BD4680BC704700BF00100240A2
:101A8C0000127A00282400083824000800093D00C0
:101A9C0080B485B000AF78600A4B1B680A4AA2FB81
:101AAC0003235B0A7A6802FB03F3FB6000BFFB684D
:101ABC005A1EFA60002BF9D100BF00BF1437BD4687
:101ACC0080BC704730000020D34D621080B582B0CE
:101ADC0000AF78607B68002B01D1012341E07B686B
:101AEC0093F83D30DBB2002B06D17B68002283F8E3
:101AFC003C207868FFF73AF87B68022283F83D2097
:101B0C007B681A687B6804331946104600F056FA55
:101B1C007B68012283F846207B68012283F83E20F3
:101B2C007B68012283F83F207B68012283F84020E8
:101B3C007B68012283F841207B68012283F84220D4
:101B4C007B68012283F843207B68012283F84420C0
:101B5C007B68012283F845207B68012283F83D20B5
:101B6C00002318460837BD4680BD000080B485B000
:101B7C0000AF78607B6893F83D30DBB2012B01D06D
:101B8C00012335E07B68022283F83D207B681B68CB
:101B9C00DA687B681B6842F00102DA607B681B68BC
:101BAC00164A934209D07B681B68B3F1804F04D06E
:101BBC007B681B68124A934211D17B681B689B6837
:101BCC0003F00703FB60FB68062B10D07B681B68D7
:101BDC001A687B681B6842F001021A6007E07B6898
:101BEC001B681A687B681B6842F001021A600023AC
:101BFC0018461437BD4680BC704700BF002C01400E
:101C0C000004004080B584B000AF78607B681B682E
:101C1C00DB68FB607B681B681B69BB60BB6803F0FF
:101C2C000203002B20D0FB6803F00203002B1BD017
:101C3C007B681B686FF002021A617B6801221A77BD
:101C4C007B681B689B6903F00303002B03D0786847
:101C5C0000F098F905E0786800F08BF9786800F0EE
:101C6C009AF97B6800221A77BB6803F00403002BF7
:101C7C0020D0FB6803F00403002B1BD07B681B688F
:101C8C006FF004021A617B6802221A777B681B686A
:101C9C009B6903F44073002B03D0786800F072F951
:101CAC0005E0786800F065F9786800F074F97B68F5
:101CBC0000221A77BB6803F00803002B20D0FB68C6
:101CCC0003F00803002B1BD07B681B686FF0080225
:101CDC001A617B6804221A777B681B68DB6903F046
:101CEC000303002B03D0786800F04CF905E078680A
:101CFC0000F03FF9786800F04EF97B6800221A7703
:101D0C00BB6803F01003002B20D0FB6803F010031A
:101D1C00002B1BD07B681B686FF010021A617B686C
:101D2C0008221A777B681B68DB6903F44073002B6D
:101D3C0003D0786800F026F905E0786800F019F90E
:101D4C00786800F028F97B6800221A77BB6803F0EA
:101D5C000103002B0CD0FB6803F00103002B07D010
:101D6C007B681B686FF001021A617868FEF7BCFE95
:101D7C00BB6803F08003002B0CD0FB6803F08003DE
:101D8C00002B07D07B681B686FF080021A617868A3
:101D9C0000F06FFABB6803F04003002B0CD0FB681B
:101DAC0003F04003002B07D07B681B686FF04002E8
:101DBC001A61786800F0F8F8BB6803F02003002B78
:101DCC000CD0FB6803F02003002B07D07B681B684A
:101DDC006FF020021A61786800F042FA00BF1037E9
:101DEC00BD4680BD80B584B000AF786039600023FB
:101DFC00FB737B6893F83C30012B01D10223B4E0D8
:101E0C007B68012283F83C207B68022283F83D200A
:101E1C007B681B689B68BB60BB6823F07703BB6067
:101E2C00BB6823F47F43BB607B681B68BA689A600D
:101E3C003B681B68B3F5005F3ED0B3F5005F00F262
:101E4C008780B3F5805F00F08680B3F5805F7FD824
:101E5C00702B1AD0702B7BD8602B50D0602B77D87E
:101E6C00502B3CD0502B73D8402B58D0402B6FD8D4
:101E7C00302B64D0302B6BD8202B60D0202B67D824
:101E8C00002B5CD0102B5AD062E07B6818683B6842
:101E9C0099683B685A683B68DB6800F06AF97B68B4
:101EAC001B689B68BB60BB6843F07703BB607B68B7
:101EBC001B68BA689A604FE07B6818683B68996841
:101ECC003B685A683B68DB6800F053F97B681B6819
:101EDC009A687B681B6842F480429A603CE07B689D
:101EEC0018683B6859683B68DB681A4600F0CAF80A
:101EFC007B681B685021184600F021F92CE07B68A8
:101F0C0018683B6859683B68DB681A4600F0E8F8CB
:101F1C007B681B686021184600F011F91CE07B6897
:101F2C0018683B6859683B68DB681A4600F0AAF8E9
:101F3C007B681B684021184600F001F90CE07B68B7
:101F4C001A683B681B681946104600F0F8F803E065
:101F5C000123FB7300E000BF7B68012283F83D2066
:101F6C007B68002283F83C20FB7B18461037BD466B
:101F7C0080BD80B483B000AF786000BF0C37BD4625
:101F8C0080BC704780B483B000AF786000BF0C3762
:101F9C00BD4680BC704780B483B000AF786000BF92
:101FAC000C37BD4680BC704780B483B000AF7860FE
:101FBC0000BF0C37BD4680BC7047000080B485B0B4
:101FCC0000AF786039607B681B68FB607B682B4ACC
:101FDC00934207D07B68B3F1804F03D07B68284ACB
:101FEC00934208D1FB6823F07003FB603B685B688D
:101FFC00FA681343FB607B68204A934207D07B68E6
:10200C00B3F1804F03D07B681D4A934208D1FB6823
:10201C0023F44073FB603B68DB68FA681343FB6096
:10202C00FB6823F080023B685B691343FB607B68B1
:10203C00FA681A603B689A687B68DA623B681A68CF
:10204C007B689A627B680D4A934203D13B681A699C
:10205C007B681A637B6801225A617B681B6903F0F9
:10206C000103002B05D07B681B6923F001027B6800
:10207C001A6100BF1437BD4680BC7047002C01406C
:10208C000004004080B487B000AFF860B9607A609B
:10209C00FB681B6A7B61FB681B6A23F00102FB680F
:1020AC001A62FB689B693B613B6923F0F0033B615F
:1020BC007B681B013A6913433B617B6923F00A037C
:1020CC007B617A69BB6813437B61FB683A699A61EF
:1020DC00FB687A691A6200BF1C37BD4680BC70472A
:1020EC0080B487B000AFF860B9607A60FB681B6A97
:1020FC007B61FB681B6A23F01002FB681A62FB68A9
:10210C009B693B613B6923F470433B617B681B0318
:10211C003A6913433B617B6923F0A0037B61BB6885
:10212C001B017A6913437B61FB683A699A61FB680E
:10213C007A691A6200BF1C37BD4680BC704780B4F8
:10214C0085B000AF786039607B689B68FB60FB688A
:10215C0023F07003FB603A68FB68134343F00703FA
:10216C00FB607B68FA689A6000BF1437BD4680BC80
:10217C00704780B487B000AFF860B9607A603B609C
:10218C00FB689B687B617B6923F47F437B613B68C5
:10219C001A027B681A43BB6813437A6913437B6149
:1021AC00FB687A699A6000BF1C37BD4680BC7047DB
:1021BC0080B485B000AF786039607B6893F83C30B0
:1021CC00012B01D1022341E07B68012283F83C20E2
:1021DC007B68022283F83D207B681B685B68FB6090
:1021EC007B681B689B68BB60FB6823F07003FB601B
:1021FC003B681B68FA681343FB607B681B68FA68D2
:10220C005A607B681B68144A934209D07B681B6830
:10221C00B3F1804F04D07B681B68104A93420CD1F9
:10222C00BB6823F08003BB603B685B68BA681343F0
:10223C00BB607B681B68BA689A607B68012283F874
:10224C003D207B68002283F83C200023184614377D
:10225C00BD4680BC704700BF002C0140000400400C
:10226C0080B483B000AF786000BF0C37BD4680BC33
:10227C00704780B483B000AF786000BF0C37BD46A8
:10228C0080BC7047014B1868704700BF3C000020B1
:10229C0070B500260C4D0D4C641BA410A64209D140
:1022AC0000F0A2F800260A4D0A4C641BA410A642AA
:1022BC0005D170BD55F8043B98470136EEE755F84B
:1022CC00043B98470136F2E73C2400083C24000804
:1022DC003C24000840240008024B0146186800F01A
:1022EC000BB800BF3C00002003460244934200D1CF
:1022FC00704703F8011BF9E7F8B5CD1C25F0030571
:10230C0008350C2D38BF0C25002D064601DBA942E3
:10231C0003D90C2333600020F8BD00F057F8214995
:10232C000A6814469CB9204F3B6823B921463046B5
:10233C0000F03CF838602946304600F037F8431C72
:10234C0023D10C233046336000F046F8E3E72368D2
:10235C005B1B17D40B2B03D923601C44256004E0B2
:10236C006368A2420CBF0B605360304600F034F837
:10237C0004F10B00231D20F00700C21ACCD01B1A4D
:10238C00A350C9E722466468CCE7C41C24F00304BC
:10239C00A042E3D0211A304600F008F80130DDD11C
:1023AC00CFE700BF0C0100201001002038B500233E
:1023BC00054D044608462B60FEF72EFC431C02D14B
:1023CC002B6803B1236038BD64010020014800F084
:1023DC0009B800BF6C010020014800F004B800BF30
:1023EC006C01002070477047F8B500BFF8BC08BC02
:1023FC009E467047F8B500BFF8BC08BC9E467047B7
:10240C003F065B4F666D7D077F6F0000000000008C
:10241C00000000000102030406070809020304057A
:10242C00060708090A0B0C0D0E0F10100102000014
:04243C003101000862
:042440000D01000882
:10244400FFFFFFFFFFFFFFFFFFFFFFFF0F00000085
:102454000800000032000000010000000500000038
:1024640000000000080000003C7E66667E7E666612
:1024740000127A001000000001000000400000205B
:102484000000000000000000000000000000000048
:102494000000000000000000000000000000000038
:1024A4000000000000000000000000000000000028
:1024B4000000000000000000000000000000000018
:1024C4000000000000000000000000000000000008
:1024D40000000000000000000000000000000000F8
:0400000508000C9D46
:00000001FF
